:020000040800F2
:1000000018040020292100083121000833210008AC
:1000100000000000000000000000000000000000E0
:100020000000000000000000000000003521000872
:1000300000000000000000003721000891010008C6
:100040003B210008000000003B2100083B21000884
:100050003B2100083B2100083B2100083B21000810
:10006000000000003B2100083B2100083B21000864
:100070003B2100083B2100083B2100080000000054
:100080003B21000800000000000000003B210008A8
:100090003B2100083B2100083B2100083B210008D0
:1000A0003B2100083B2100083B2100083B210008C0
:1000B0003B2100080348854602F0ECF80048004761
:1000C000E90100081804002010B500F03CF810BD4C
:1000D00010B500F042F810BD0020C043704710B5C5
:1000E00000F031F810BDFEE72548416901225204B5
:1000F000114341614169520011434161816912110B
:10010000114381610920C006416AFF221201914317
:100110004162416AFF2211321143416201680F229C
:1001200092049143016001680522D20411430160E9
:1001300015481449C160002181604160134A0921BA
:100140001160016070471049CA691206FCD5C105EB
:100150000D4AC90D20321181704708B50A48C1699E
:10016000890603D508482030808808BDC169009100
:10017000016206490422096811430160501F08BD4D
:10018000001002404103000000380140040000203C
:1001900035480168491C0160704733490A6800E02E
:1001A00000BF0B689B1A8342FAD370472F4801683F
:1001B00001221143016001688907FCD500214160DB
:1001C00041680907890FFBD1294910230B600B688F
:1001D00013430B604168416041684160016801223E
:1001E000120691430160704708B5FFF7DFFF01F089
:1001F000D0FFFFF779FF7D241E48E4002146006808
:1002000002F002F81C49401E88420CD81B49486184
:100210001B480722C3691B021B0A4D042B43C36101
:10022000002088610A612B20FFF78DFF01F07EFE20
:10023000322000F06CF813A002F060F801F0F0FD3D
:1002400001F03AFE6A460021012000F049F86946B3
:100250000978002904D001F02FFE15A002F04EF815
:10026000204600F054F8EDE708000020001002409E
:100270000020024010000020FFFFFF0000E000E02F
:1002800004ED00E053544D33322046504741204D99
:1002900049504920726F746174652039302064655B
:1002A0006772656520626F6172642E0D0A0000003E
:1002B000582E2E2E0D0A0000002807D0012808D045
:1002C00019480123002A826906D104E00920C006EA
:1002D000F7E71648F5E710318B401A438261704703
:1002E00010B500280AD001280BD00F48036901245B
:1002F00020468840034206D0147006E00920C0065C
:10030000F4E70A48F2E700201070107810BD08B535
:10031000074A06E000920099491E00910029FADC84
:10032000401E0028F6DC08BD000800480004004814
:100330002D03000010B5FFF7EAFF10BD70B50546AC
:1003400000220F210120FFF7B7FF00220D2101201D
:10035000FFF7B2FF01220D211046FFF7ADFF00228B
:100360000D210120FFF7A8FF0024E80901D0012298
:1003700000E000220F210120FFF79EFF01220D2146
:100380001046FFF799FF00220D210120FFF794FF8F
:100390006806641C050EE4B2082CE6D370BD70B587
:1003A000054601220F211046FFF786FF00220D218E
:1003B0000120FFF781FF01220D211046FFF77CFF8E
:1003C00000220D210120FFF777FF0024E80901D06A
:1003D000012200E000220F210120FFF76DFF012222
:1003E0000D211046FFF768FF00220D210120FFF7C5
:1003F00063FF6806641C050EE4B2082CE6D370BDEA
:1004000010B5044600220C210120FFF755FFE0B291
:10041000FFF794FF10BD10B50446C0B2FFF7BFFF51
:10042000200AFFF7BCFF10BD10B5044600220C21C6
:100430000120FFF741FF2046FFF780FF01220C213A
:100440001046FFF739FF10BD10B5044600220C21FD
:100450000120FFF731FF2046FFF7A1FF01220C2109
:100460001046FFF729FF10BD70B5054600220C218C
:100470000120FFF721FF00220F210120FFF71CFFC1
:1004800000220D210120FFF717FF01220D21104648
:10049000FFF712FF00220D210120FFF70DFF0024BE
:1004A000E80901D0012200E000220F210120FFF71E
:1004B00003FF01220D211046FFF7FEFE00220D2151
:1004C0000120FFF7F9FE6806641C050EE4B2082C53
:1004D000E6D301220C211046FFF7EEFE70BD70B589
:1004E0000C46054600220C210120FFF7E5FE2846B8
:1004F000FFF724FFE0B2FFF752FF200AFFF74FFF9C
:1005000001220C211046FFF7D7FE70BD70B5002404
:10051000254601266006040E01220D211046FFF734
:10052000CBFEFE4A0E210120FFF7DAFE012800D1A2
:10053000344300220D210120FFF7BEFE6D1CEDB2F9
:10054000082DE7D3204670BDF8B500220C2101200C
:10055000FFF7B2FE00220F210120FFF7ADFE0022BF
:100560000D210120FFF7A8FE01220D211046FFF703
:10057000A3FEB02500220D210120FFF79DFE0024DF
:10058000E80901D0012200E000220F210120FFF73D
:1005900093FE01220D211046FFF78EFE00220D2151
:1005A0000120FFF789FE6806641C050EE4B2082CE2
:1005B000E6D300220F210120FFF77EFE00220D214D
:1005C0000120FFF779FE01220D211046FFF774FE8E
:1005D000FA2500220D210120FFF76EFE0024E80914
:1005E00001D0012200E000220F210120FFF764FE6C
:1005F00001220D211046FFF75FFE00220D21012090
:10060000FFF75AFE6806641C050EE4B2082CE6D318
:100610000024254601276006040E01220D21104604
:10062000FFF74AFEBD4A0E210120FFF759FE0028C0
:1006300000D03C4300220D210120FFF73DFE6D1C40
:10064000EDB2082DE7D300252E466806050E0122DF
:100650000D211046FFF730FEB04A0E210120FFF7B2
:100660003FFE002800D03D4300220D210120FFF76E
:1006700023FE761CF6B2082EE7D32802001984B2B6
:1006800001220C211046FFF717FE2046F8BD10B5D9
:10069000FFF75AFFA249884201D1552010BD002022
:1006A00010BDF8B5044600220C210120FFF704FE1E
:1006B00000220F210120FFF7FFFD00220D21012064
:1006C000FFF7FAFD01220D211046FFF7F5FD00228C
:1006D0000D210120FFF7F0FD0025E00901D00122E6
:1006E00000E000220F210120FFF7E6FD01220D218D
:1006F0001046FFF7E1FD00220D210120FFF7DCFD90
:1007000060066D1C040EEDB2082DE6D300220F2109
:100710000120FFF7D1FD00220D210120FFF7CCFDC4
:1007200001220D211046FFF7C7FDFA2500220D21F9
:100730000120FFF7C1FD0024E80901D0012200E0FB
:1007400000220F210120FFF7B7FD01220D211046E5
:10075000FFF7B2FD00220D210120FFF7ADFD680675
:10076000641C050EE4B2082CE6D3002425460127BC
:100770006006040E01220D211046FFF79DFD674A19
:100780000E210120FFF7ACFD002800D03C430022E1
:100790000D210120FFF790FD6D1CEDB2082DE7D370
:1007A00000252E466806050E01220D211046FFF792
:1007B00083FD5A4A0E210120FFF792FD002800D048
:1007C0003D4300220D210120FFF776FD761CF6B295
:1007D000082EE7D32802001984B201220C2110460A
:1007E000FFF76AFD2046F8BD5BE710B5044600221E
:1007F0000C210120FFF760FD2046FFF7D0FD01220C
:100800000C211046FFF758FD10BD10B50146BC2065
:10081000FFF765FEBF20FFF707FE01220C211046FF
:10082000FFF74AFD10BD70B500220C210120FFF733
:1008300043FD00252C466806050E01220D211046B9
:10084000FFF73AFD354A0E210120FFF749FD00224E
:100850000D210120FFF730FD641CE4B2082CEAD31F
:1008600001220C211046FFF727FD284670BD10B568
:10087000B720FFF7F9FD5020FFF7B7FF0020FFF783
:10088000B4FFB820FFF7F0FD0020FFF7AEFF002017
:10089000FFF7ABFFB920FFF7E7FD0020FFF7A5FF4B
:1008A0000020FFF7A2FFBA20FFF7DEFD0320FFF7CD
:1008B0009CFF8020FFF799FFBB20FFF7D5FD0620A6
:1008C000FFF793FF0020FFF790FF5020FFF71FFD79
:1008D000B920FFF7C9FD0120FFF787FF0020FFF7D0
:1008E00084FF2820FFF713FDDE20FFF7BDFD032066
:1008F000FFF77BFF0020FFF778FFC920FFF7B4FD6B
:100900000220FFF772FF2320FFF76FFF0A20FFF797
:10091000FEFCB720FFF7A8FD602003E00C000020DC
:1009200028280000FFF761FF0220FFF75EFF50203C
:10093000FFF7EDFCB720FFF797FD2020FFF755FFED
:100940000220FFF752FFA020FFF7E1FCBC20FFF7D9
:100950008BFD0220FFF749FF0020FFF746FFBF2075
:10096000FFF782FDB020FFF740FF0020FFF73DFFBB
:100970002820FFF7CCFCBC20FFF776FD0220FFF714
:1009800034FF0020FFF731FFBF20FFF76DFDD620B9
:10099000FFF72BFF0120FFF728FF2820FFF7B7FC08
:1009A000BC20FFF761FD0620FFF71FFF0020FFF7C7
:1009B0001CFFBF20FFF758FDB320FFF716FF1420E0
:1009C000FFF713FF0820FFF710FF0020FFF70DFFD0
:1009D0002220FFF70AFF0020FFF707FF5020FFF754
:1009E00096FCBC20FFF740FD0220FFF7FEFE002032
:1009F000FFF7FBFEBF20FFF737FDB420FFF7F5FE42
:100A00000C20FFF7F2FE2820FFF781FCBC20FFF747
:100A10002BFD0220FFF7E9FE0020FFF7E6FEBF20D6
:100A2000FFF722FDDE20FFF7E0FE0020FFF7DDFEEE
:100A30002820FFF76CFCBC20FFF716FD0320FFF712
:100A4000D4FE0020FFF7D1FEBF20FFF70DFDB6203A
:100A5000FFF7CBFE3A20FFF7C8FED320FFF7C5FE15
:100A60002820FFF754FCBC20FFF7FEFC0220FFF714
:100A7000BCFE0020FFF7B9FEBF20FFF7F5FCC02049
:100A8000FFF7B3FE0020FFF7B0FEBC20FFF7ECFC41
:100A90002520FFF7AAFE0020FFF7A7FEBF20FFF7E3
:100AA000E3FCC120FFF7A1FE0C20FFF79EFE6120B2
:100AB000FFF79BFE0020FFF798FE2020FFF795FE32
:100AC0000020FFF792FE0120FFF78FFE4020FFF786
:100AD0008CFE0120FFF789FE0020FFF786FE1C2018
:100AE000FFF783FEF720FFF780FEE020FFF77DFE93
:100AF0006220FFF77AFEAD20FFF777FEB120FFF707
:100B000074FE0520FFF771FE9F20FFF76EFE3B206D
:100B1000FFF76BFE0020FFF768FE8020FFF765FE01
:100B20000220FFF762FE8020FFF75FFE0020FFF744
:100B30005CFE0120FFF759FE0020FFF756FE112052
:100B4000FFF753FE1120FFF750FE1120FFF74DFE77
:100B50001120FFF74AFE8020FFF747FE0020FFF735
:100B600044FE0020FFF741FE0020FFF73EFE22205A
:100B7000FFF73BFE0020FFF738FE0120FFF735FEB0
:100B8000BC20FFF771FC0A20FFF72FFE0020FFF7C3
:100B90002CFEBF20FFF768FCC220FFF726FE0620D0
:100BA000FFF7B5FB3120FFF720FEF720FFF71DFE12
:100BB0008020FFF71AFE0020FFF717FE0820FFF73E
:100BC00014FE0020FFF711FE0820FFF70EFE0020A4
:100BD000FFF70BFE0020FFF708FEBC20FFF744FCE8
:100BE0000D20FFF702FE0020FFF7FFFDBF20FFF7FB
:100BF0003BFCC420FFF7F9FD7020FFF7F6FD032052
:100C0000FFF7F3FD0320FFF7F0FD0020FFF7EDFDF8
:100C10000020FFF7EAFD0020FFF7E7FD0020FFF7C7
:100C2000E4FD0020FFF7E1FD0020FFF7DEFD0820D6
:100C3000FFF7DBFD0220FFF7D8FD0020FFF7D5FD11
:100C4000BC20FFF711FC1520FFF7CFFD0020FFF7B8
:100C5000CCFDBF20FFF708FCC620FFF7C6FD7220C1
:100C6000FFF7C3FD0120FFF7C0FD4520FFF7BDFDE5
:100C70000120FFF7BAFD6620FFF7B7FD0120FFF75F
:100C8000B4FD0120FFF7B1FD0120FFF7AEFD01200B
:100C9000FFF7ABFD0120FFF7A8FD0120FFF7A5FD41
:100CA0000120FFF7A2FD0120FFF79FFD0120FFF7C4
:100CB0009CFD0120FFF799FD0120FFF796FD012023
:100CC000FFF793FD0B20FFF790FD0A20FFF78DFD46
:100CD0000520FFF78AFDBC20FFF7C6FB1F20FFF7AA
:100CE00084FD0020FFF781FDBF20FFF7BDFBC7207B
:100CF000FFF77BFD0020FFF778FD0F20FFF775FD64
:100D00001720FFF772FD2120FFF76FFD3020FFF75E
:100D10006CFD3F20FFF769FD4920FFF766FD5A2073
:100D2000FFF763FD4120FFF760FD4920FFF75DFD00
:100D30005720FFF75AFD6B20FFF757FD7220FFF792
:100D400054FD7520FFF751FD7620FFF74EFD002082
:100D5000FFF74BFD0F20FFF748FD1720FFF745FD7C
:100D60002120FFF742FD3020FFF73FFD3F20FFF736
:100D70003CFD4920FFF739FD5A20FFF736FD4120A1
:100D8000FFF733FD4920FFF730FD5720FFF72DFD1A
:100D90006B20FFF72AFD7220FFF727FD7520FFF774
:100DA00024FD7620FFF721FDBC20FFF75DFB14201A
:100DB000FFF71BFD0020FFF718FDBF20FFF754FBD6
:100DC000C820FFF712FD0120FFF70FFD0020FFF7FD
:100DD0000CFD0020FFF709FDFE20FFF706FDFE20B9
:100DE000FFF703FDFC20FFF700FDF020FFF7FDFCFF
:100DF0000020FFF7FAFC0020FFF7F7FC0020FFF7C8
:100E0000F4FC0020FFF7F1FCFC20FFF7EEFC0020D3
:100E1000FFF7EBFC0020FFF7E8FC0020FFF7E5FC04
:100E20000020FFF7E2FC0020FFF7DFFCFC20FFF7CB
:100E3000DCFC0020FFF7D9FCBC20FFF715FB0520E8
:100E4000FFF7D3FC0020FFF7D0FCBF20FFF70CFB1F
:100E5000C920FFF7CAFC0020FFF7C7FC0320FFF7FB
:100E6000C4FC0120FFF7C1FC5320FFF7BEFCBC20EF
:100E7000FFF7FAFA0D20FFF7B8FC0020FFF7B5FCEA
:100E8000BF20FFF7F1FACB20FFF7AFFC6A20FFF796
:100E9000ACFCFC20FFF7A9FCFF20FFF7A6FC5820C4
:100EA000FFF7A3FC0120FFF7A0FC0420FFF79DFC47
:100EB0000020FFF79AFC0020FFF797FC8020FFF747
:100EC00094FC0020FFF791FC3C20FFF78EFCCF2024
:100ED000FFF78BFCBC20FFF7C7FA0220FFF785FC69
:100EE0000020FFF782FCBF20FFF7BEFACC20FFF7FF
:100EF0007CFC0720FFF779FCBC20FFF7B5FA0B203C
:100F0000FFF773FC0020FFF770FCBF20FFF7ACFA7F
:100F1000D020FFF76AFC5520FFF767FC8120FFF720
:100F200064FCBB20FFF761FC1720FFF75EFC0C2080
:100F3000FFF75BFC4C20FFF758FC1920FFF755FC2E
:100F40001920FFF752FC0C20FFF74FFC0020FFF7A1
:100F50004CFCBC20FFF788FA1B20FFF746FC002062
:100F6000FFF743FCBF20FFF77FFAD320FFF73DFCDC
:100F70000B20FFF73AFC3320FFF737FCBB20FFF7CD
:100F800034FCBB20FFF731FCB320FFF72EFC3320ED
:100F9000FFF72BFC3320FFF728FC3320FFF725FC5D
:100FA0000020FFF722FC0120FFF71FFC0020FFF7C5
:100FB0001CFCA020FFF719FCD820FFF716FCA0208E
:100FC000FFF713FC0420FFF710FC4320FFF70DFC94
:100FD0004320FFF70AFC3320FFF707FC3B20FFF715
:100FE00004FC2220FFF701FC7220FFF7FEFB072024
:100FF000FFF7FBFB3D20FFF7F8FBBF20FFF7F5FBFA
:101000009920FFF7F2FB1120FFF7EFFBBC20FFF761
:101010002BFA0820FFF7E9FB0020FFF7E6FBBF20D3
:10102000FFF722FAD520FFF7E0FB0620FFF7DDFBF4
:101030000020FFF7DAFB0020FFF7D7FB0120FFF7C6
:10104000D4FB2C20FFF7D1FB0120FFF7CEFB2C2097
:10105000FFF7CBFBBC20FFF707FA0220FFF7C5FB29
:101060000020FFF7C2FBBF20FFF7FEF9D620FFF7F5
:10107000BCFB0120FFF7B9FBB720FFF7F5F96020B3
:10108000FFF7B3FB0220FFF7B0FB2820FFF73FF983
:10109000BC20FFF7E9F90220FFF7A7FB0020FFF7CC
:1010A000A4FBBF20FFF7E0F95120FFF79EFBE020F3
:1010B000FFF79BFB2820FFF72AF9BC20FFF7D4F9A4
:1010C0000220FFF792FB0020FFF78FFBBF20FFF706
:1010D000CBF95320FFF789FB0420FFF786FB28207C
:1010E000FFF715F9BC20FFF7BFF90220FFF77DFBE2
:1010F0000020FFF77AFBBF20FFF7B6F93A20FFF791
:1011000074FB7720FFF771FB2820FFF700F9BC2064
:10111000FFF7AAF90220FFF768FB0020FFF765FB45
:10112000BF20FFF7A1F93520FFF75FFB0120FFF794
:101130005CFBBC20FFF798F90220FFF756FB00206C
:10114000FFF753FBBF20FFF78FF93620FFF74DFB6A
:101150004820FFF74AFBBC20FFF786F90220FFF783
:1011600044FB0020FFF741FBBF20FFF77DF929205A
:10117000FFF73BFB0020FFF738FB6420FFF7C7F8C1
:10118000BC20FFF771F90220FFF72FFB0020FFF7CB
:101190002CFBBF20FFF768F91120FFF726FB00208A
:1011A000FFF723FBC820FFF7B2F8B720FFF75CF981
:1011B0005020FFF71AFB0020FFF717FBB820FFF7BE
:1011C00053F90020FFF711FB0020FFF70EFBB920B9
:1011D000FFF74AF90020FFF708FB0020FFF705FBA7
:1011E000BA20FFF741F95020FFF7FFFAC220FFF7BE
:1011F000FCFAB920FFF738F90120FFF7F6FA0020D2
:10120000FFF7F3FAC920FFF72FF90220FFF7EDFAF5
:101210002320FFF7EAFACA20FFF726F90120FFF79B
:10122000E4FA2320FFF7E1FA0820FFF770F8CB205B
:10123000FFF71AF91020FFF7D8FA0520FFF7D5FAC3
:10124000CC20FFF711F90520FFF7CFFA1020FFF7A8
:10125000CCFAFE49B120FFF742F9FD49B220FFF771
:101260003EF9FC49B320FFF73AF94B210901B420BC
:10127000FFF735F90F21C901B520FFF730F91B2120
:10128000B620FFF72CF9DE20FFF7EEF80320FFF77A
:10129000ACFA0020FFF7A9FAD620FFF7E5F8052001
:1012A000FFF7A3FA0020FFF7A0FAB720FFF7DCF85A
:1012B0004B20FFF79AFA0220FFF797FA10BD10B5FE
:1012C0000146BC20FFF70BF9BF20FFF7CDF810BD9A
:1012D00010B5E149E1A001F011F800220821104603
:1012E000FEF7EAFF3020FFF712F801220821002064
:1012F000FEF7E2FF3020FFF70AF8B720FFF7B4F857
:101300005020FFF772FA0020FFF76FFAB820FFF7BE
:10131000ABF80020FFF769FA0020FFF766FAB92062
:10132000FFF7A2F80020FFF760FA0020FFF75DFA50
:101330000A20FEF7ECFFBA20FFF796F81420FFF71B
:1013400054FA4220FFF751FA0A20FEF7E0FFBB20D3
:10135000FFF78AF80320FFF748FA0020FFF745FA65
:101360000A20FEF7D4FFB920FFF77EF80120FFF72F
:101370003CFA0020FFF739FA6420FEF7C8FFDE20B0
:10138000FFF772F80320FFF730FA0020FFF72DFA7D
:101390000A20FEF7BCFFC920FFF766F80220FFF71E
:1013A00024FA2320FFF721FA6420FEF7B0FFB720CC
:1013B000FFF75AF81020FFF718FA0220FFF715FA86
:1013C000BD20FFF751F80020FFF70FFA0020FFF7CC
:1013D0000CFA0220FFF773FFB020FFF706FA002097
:1013E000FFF703FA2820FEF792FF0220FFF767FFBE
:1013F000D620FFF7FAF90120FFF7F7F92820FEF7CA
:1014000086FF0620FFF75BFFB320FFF7EEF91420FD
:10141000FFF7EBF90820FFF7E8F90020FFF7E5F9FF
:101420002220FFF7E2F90020FFF7DFF95020FEF756
:101430006EFF0220FFF743FFB420FFF7D6F90C2020
:10144000FFF7D3F92820FEF762FF0220FFF737FFEE
:10145000DE20FFF7CAF90020FFF7C7F92820FEF7C2
:1014600056FF0320FFF72BFFB620FFF7BEF93A2007
:10147000FFF7BBF9D320FFF7B8F92820FEF747FFA5
:101480000220FFF71CFFC020FFF7AFF90020FFF795
:10149000ACF92520FFF713FFC120FFF7A6F90C20B8
:1014A000FFF7A3F96120FFF7A0F90020FFF79DF9EE
:1014B0002020FFF79AF90020FFF797F90120FFF7A6
:1014C00094F94020FFF791F90120FFF78EF90020F1
:1014D000FFF78BF91C20FFF788F9F720FFF785F954
:1014E000E020FFF782F96220FFF77FF9AD20FFF7D8
:1014F0007CF9B120FFF779F90520FFF776F99F20F5
:10150000FFF773F93B20FFF770F90020FFF76DF943
:101510008020FFF76AF90220FFF767F98020FFF7C4
:1015200064F90020FFF761F90120FFF75EF9002060
:10153000FFF75BF91120FFF758F91120FFF755F974
:101540001120FFF752F91120FFF74FF98020FFF724
:101550004CF90020FFF749F90020FFF746F9002079
:10156000FFF743F92220FFF740F90020FFF73DF98C
:101570000120FFF73AF90A20FFF7A1FEC220FFF78A
:1015800034F93120FFF731F9F720FFF72EF98020E9
:10159000FFF72BF90020FFF728F90820FFF725F9BE
:1015A0000020FFF722F90820FFF71FF90020FFF7BE
:1015B0001CF90020FFF719F90D20FFF780FEC42069
:1015C000FFF713F97020FFF710F90320FFF70DF96B
:1015D0000320FFF70AF90020FFF707F90020FFF7C3
:1015E00004F90020FFF701F90020FFF7FEF80020C2
:1015F000FFF7FBF80020FFF7F8F80820FFF7F5F8F1
:101600000220FFF7F2F80020FFF7EFF81520FFF7B0
:1016100056FEC620FFF7E9F87220FFF7E6F8012032
:10162000FFF7E3F84520FFF7E0F80120FFF7DDF8CA
:101630006620FFF7DAF80120FFF7D7F80120FFF75F
:10164000D4F80120FFF7D1F801200BE00B030000D4
:101650003C0700003C0A0000182600082B2B2573CD
:101660000D0A0000FFF7C1F80120FFF7BEF80120C6
:10167000FFF7BBF80120FFF7B8F80120FFF7B5F836
:101680000120FFF7B2F80120FFF7AFF80120FFF7C4
:10169000ACF80120FFF7A9F80B20FFF7A6F81A20F5
:1016A000FFF7A3F80520FFF7A0F81F20FFF707FEBC
:1016B000C720FFF79AF80020FFF797F80F20FFF7F1
:1016C00094F81720FFF791F82120FFF78EF83020CB
:1016D000FFF78BF83F20FFF788F84920FFF785F8E0
:1016E0005A20FFF782F84120FFF77FF84920FFF7E3
:1016F0007CF85720FFF779F86B20FFF776F8722017
:10170000FFF773F87520FFF770F87620FFF76DF894
:101710000020FFF76AF80F20FFF767F81720FFF7A0
:1017200064F82120FFF761F83020FFF75EF83F20D2
:10173000FFF75BF84920FFF758F85A20FFF755F8F4
:101740004120FFF752F84920FFF74FF85720FFF7E5
:101750004CF86B20FFF749F87220FFF746F8752028
:10176000FFF743F87620FFF740F81420FFF7A7FDB6
:10177000C820FFF73AF80120FFF737F80020FFF7FD
:1017800034F80020FFF731F8FE20FFF72EF8FE2096
:10179000FFF72BF8FC20FFF728F8F020FFF725F8DB
:1017A0000020FFF722F80020FFF71FF80020FFF7C6
:1017B0001CF80020FFF719F8FC20FFF716F80020AE
:1017C000FFF713F80020FFF710F80020FFF70DF8DF
:1017D0000020FFF70AF80020FFF707F8FC20FFF7CA
:1017E00004F80020FFF701F80520FFF768FDC92085
:1017F000FEF7FBFF0020FEF7F8FF0320FEF7F5FFE2
:101800000120FEF7F2FF5320FEF7EFFF0D20FFF758
:1018100056FDCB20FEF7E9FF6A20FEF7E6FFFC202D
:10182000FEF7E3FFFF20FEF7E0FF5820FEF7DDFFA5
:101830000120FEF7DAFF0420FEF7D7FF0020FEF7B5
:10184000D4FF0020FEF7D1FF8020FEF7CEFF00205E
:10185000FEF7CBFF3C20FEF7C8FFCF20FEF7C5FF09
:101860000220FFF72CFDCC20FEF7BFFF0720FEF77C
:10187000BCFF0B20FFF723FDD020FEF7B6FF55205D
:10188000FEF7B3FF8120FEF7B0FFBB20FEF7ADFFF0
:101890001720FEF7AAFF0C20FEF7A7FF4C20FEF74B
:1018A000A4FF1920FEF7A1FF1920FEF79EFF0C20D0
:1018B000FEF79BFF0020FEF798FF1B20FFF7FFFCC1
:1018C000D320FEF792FF0B20FEF78FFF3320FEF7A9
:1018D0008CFFBB20FEF789FFBB20FEF786FFB320FD
:1018E000FEF783FF3320FEF780FF3320FEF77DFFF6
:1018F0003320FEF77AFF0020FEF777FF0120FEF786
:1019000074FF0020FEF771FFA020FEF76EFFD820C5
:10191000FEF76BFFA020FEF768FF0420FEF765FFCF
:101920004320FEF762FF4320FEF75FFF3320FEF700
:101930005CFF3B20FEF759FF2220FEF756FF722086
:10194000FEF753FF0720FEF750FF3D20FEF74DFF47
:10195000BF20FEF74AFF9920FEF747FF1120FEF750
:1019600044FF0820FFF7ABFCD520FEF73EFF062022
:10197000FEF73BFF0020FEF738FF0020FEF735FFA3
:101980000120FEF732FF2C20FEF72FFF0120FEF78B
:101990002CFF2C20FEF729FF0220FFF790FCD62019
:1019A000FEF723FF0120FEF720FFB720FEF75CFDC6
:1019B0006020FEF71AFF0220FEF717FF2820FEF72F
:1019C000A6FC0220FFF77BFC5120FEF70EFFE02073
:1019D000FEF70BFF2820FEF79AFC0220FFF76FFCB2
:1019E0005320FEF702FF0420FEF7FFFE2820FEF73B
:1019F0008EFC0220FFF763FC3A20FEF7F6FE77200C
:101A0000FEF7F3FE2820FEF782FC0220FFF757FCCA
:101A10003520FEF7EAFE0120FEF7E7FE0520FFF77E
:101A20004EFC2A20FEF7E1FE0020FEF7DEFE00203D
:101A3000FEF7DBFE0420FEF7D8FEAF20FEF7D5FE52
:101A40002820FEF764FC0520FFF739FC2B20FEF769
:101A5000CCFE0020FEF7C9FE0020FEF7C6FE0720E0
:101A6000FEF7C3FE7F20FEF7C0FE6420FEF74FFCAA
:101A70000120FFF724FC2920FEF7B7FE9620FEF791
:101A800046FC0120FFF71BFC1120FEF7AEFEFF20F5
:101A90002D30FEF73CFCB720FEF7E6FC5020FEF7A9
:101AA000A4FE0020FEF7A1FEB820FEF7DDFC00201A
:101AB000FEF79BFE0020FEF798FEB920FEF7D4FC4F
:101AC0000020FEF792FE0020FEF78FFEBA20FEF700
:101AD000CBFC5220FEF789FEC220FEF786FEBB201B
:101AE000FEF7C2FC0720FEF780FE0020FEF77DFE19
:101AF000B920FEF7B9FC0120FEF777FE0020FEF7C3
:101B000074FEC920FEF7B0FC0220FEF76EFE232013
:101B1000FEF76BFE0520FEF7FAFBCA20FEF7A4FCD9
:101B20000120FEF762FE2320FEF75FFECB20FEF7CA
:101B30009BFC1020FEF759FE0520FEF756FECC2038
:101B4000FEF792FC0520FEF750FE1020FEF74DFE3A
:101B50000520FEF7DCFBD020FEF786FC0020FEF718
:101B600044FE0020FEF741FE0520FEF7D0FBB349FE
:101B7000B120FEF7B4FCB249B220FEF7B0FCB14987
:101B8000B320FEF7ACFC4B210901B420FEF7A7FC03
:101B90000F21C901B520FEF7A2FCB620FEF764FCB8
:101BA0000320FEF722FE0020FEF71FFEDE20FEF7D8
:101BB0005BFC0320FEF719FE0020FEF716FED62080
:101BC000FEF752FC0420FEF710FE0020FEF70DFE8B
:101BD000B720FEF749FC4B20FEF707FE0220FEF778
:101BE00004FE6420FEF793FB2C20FEF73DFC964993
:101BF00096A000F083FB10BD10B5C820FEF787FB50
:101C0000002208211046FEF757FB3220FEF77FFB2B
:101C1000012208210020FEF74FFB9620FEF777FBFC
:101C2000B720FEF721FC5020FEF7DFFD0020FEF775
:101C3000DCFDB820FEF718FC0020FEF7D6FD0020E2
:101C4000FEF7D3FDB920FEF70FFC0020FEF7CDFD17
:101C50000020FEF7CAFDBA20FEF706FC0720FEF7BB
:101C6000C4FDC020FEF7C1FDBB20FEF7FDFB032035
:101C7000FEF7BBFD0020FEF7B8FDB920FEF7F4FB30
:101C80000120FEF7B2FD0020FEF7AFFDDE20FEF7DB
:101C9000EBFB0320FEF7A9FD0020FEF7A6FDC920FF
:101CA000FEF7E2FB0220FEF7A0FD2320FEF79DFDDC
:101CB0006420FEF72CFBB720FEF7D6FB1020FEF7C2
:101CC00094FD0220FEF791FDBD20FEF7CDFB002024
:101CD000FEF78BFD0020FEF788FD10BDF8B5002251
:101CE0000C210120FEF7E8FA00220F210120FEF767
:101CF000E3FA00220D210120FEF7DEFA01220D2178
:101D00001046FEF7D9FAFA2500220D210120FEF730
:101D1000D3FA0024E80901D0012200E000220F21BB
:101D20000120FEF7C9FA01220D211046FEF7C4FA80
:101D300000220D210120FEF7BFFA6806641C050E83
:101D4000E4B2082CE6D30024254601276006040EE1
:101D500001220D211046FEF7AFFA3E4A0E21012066
:101D6000FEF7BEFA002800D03C4300220D210120DE
:101D7000FEF7A2FA6D1CEDB2082DE7D300252E4622
:101D80006806050E01220D211046FEF795FA314A2C
:101D90000E210120FEF7A4FA002800D03D430022C6
:101DA0000D210120FEF788FA761CF6B2082EE7D343
:101DB0002802001984B201220C211046FEF77CFA99
:101DC0002046F8BD10B5012000F06FF80022082170
:101DD0001046FEF771FA012202210020FEF76CFA8C
:101DE00001220C211046FEF767FA00220D21012086
:101DF000FEF762FA00220F210120FEF75DFA78203B
:101E0000FEF785FA012208210020FEF755FA00228C
:101E100002211046FEF750FA7820FEF778FA10BD3E
:101E200010B5FFF7CFFFB020FEF7DEFC01460AA099
:101E300000F064FAFEF71BFD002010BD0B0300004C
:101E40003C0700003C0A0000182600082D2D2573D1
:101E50000D0A00000C000020737364323832382001
:101E600069642025780D0A0010B50022082110466B
:101E7000FEF722FA0A20FEF74AFA01220821002082
:101E8000FEF71AFA10BD10B5012202210020FEF75C
:101E900013FA0A20FEF73BFA002202211046FEF751
:101EA0000BFA0A20FEF733FA10BD10B5C2B20121B9
:101EB0000020FEF701FA10BD012210B511461046B0
:101EC000FEF7FAF90120FEF722FA01210022084666
:101ED000FEF7F2F90120FEF71AFA10BD70B50028DE
:101EE0000ED001280FD08D48036855000324AC4064
:101EF000A343036001263346AB40012905D007E028
:101F00000920C006F0E78648EEE701681943016042
:101F100041689640B14341608168A1438160816816
:101F200019438160C168A143C16070BD10B57D488F
:101F30004169012252041143416141695200114338
:101F4000416141695200114341610920C0060268A4
:101F50003C218A430260026814231A4302604268EB
:101F600006239A43426082688A438260C2688A4339
:101F7000C2600268D9038A430260026801231B041D
:101F80001A43026042681C12A243426082688A437C
:101F9000826082681A438260C2688A43C2600422F7
:101FA00001210020FFF79AFF0F2201210020FFF7F7
:101FB00095FF062201210020FFF790FF0021072254
:101FC0000846FFF78BFF052201210020FFF786FF5F
:101FD000012204210020FEF76FF901220F210020C9
:101FE000FEF76AF9002206211046FEF765F9002285
:101FF00005211046FEF760F9494802680C218A4322
:102000000260026804231A43026042680224A24369
:10201000426082688A43826082681A438260C26832
:102020008A43C260026889058A43026002688303AA
:102030001A43026042681C13A243426082688A43CA
:10204000826082681A438260C2688A43C260026802
:1020500089008A43026003680204134303604368F3
:102060005413A343436083688B43836083681343A3
:102070008360C2688A43C260016889008908016080
:10208000026801050A430260426843019A434260C4
:10209000826892009208826082680A438260C16806
:1020A00089008908C1600268032109078A43026028
:1020B00042685B109A43426082688A438260826809
:1020C00083041A438260C2688A43C26001220C21E1
:1020D0001046FEF7F1F800220F210120FEF7ECF880
:1020E00000220D210120FEF7E7F8012211461046DB
:1020F000FEF7E2F80A20FEF70AF90121002208465D
:10210000FEF7DAF8FFF7B0FE0120FFF7CEFE0A2057
:10211000FEF7FDF8FFF7B7FE002010BD00080048ED
:10212000000400480010024004488047044800476B
:10213000FEE7FEE7FEE7FEE7FEE7FEE745210008D3
:10214000B500000829480168012211430160416877
:10215000274A114041600168264A11400160016828
:10216000012292049143016041683F22120491438D
:102170004160C16A09090901C162016BFF22143281
:1021800091430163416B490849004163002181602B
:10219000704770B5154E71680C2001401648174CF9
:1021A00003D0042901D0082901D0206014E071680F
:1021B000726801231B041A4089020D0FF16AAD1CDD
:1021C0000907090F491C9A4203D100F01DF8684322
:1021D000EBE70B484543256070680A490006000F8D
:1021E000085C2168C140216070BD00000010024001
:1021F0000CB8FF08FFFFF6FE00127A001000002066
:1022000000093D002726000830B50B460146002096
:102210002022012409E00D46D5409D4205D31D46EC
:102220009540491B2546954040191546521E002DE4
:10223000F1DC30BDF0B51FB40646002082B0054683
:102240004024019100901BE0019922460F46304640
:1022500000F042F8049A059B801A994110D3104669
:102260001946224600F028F8361A8F410197224677
:1022700001200021009F00F01FF838184D41009008
:102280002046641E0028DFDC019B00982946324668
:1022900007B0F0BD064C0125064E05E0E36807CC0B
:1022A0002B430C3C98471034B442F7D3FDF706FF9C
:1022B000382600085826000810B5202A04DB0146FD
:1022C000203A9140002010BD914020239C1A0346E3
:1022D000E3401943904010BD10B5202A04DB0846A6
:1022E000203AD040002110BD0B46D340D0402024DE
:1022F000A21A91400843194610BD00000FB410B552
:1023000003A9044B044A029800F018F810BC08BC5A
:1023100004B01847C90000080000002002E008C807
:10232000121F08C1002AFAD170477047002001E04F
:1023300001C1121F002AFBD170470000FFB58FB00A
:102340000F460446002606E025280AD0129A119965
:102350009047641C761C20780028F5D1304613B0D5
:10236000F0BD00250121A14A009500E00543641C51
:1023700023780846203B98401042F7D120782E2839
:1023800015D1042005436078641C2A280AD101CFA6
:10239000641C00900BE000990A2251433039401828
:1023A000641C00902078014630390929F3D920783F
:1023B0006C280ED004DC4C2813D06A2812D104E01B
:1023C00074280ED07A280DD10BE00120400505437A
:1023D00007E00121090562780D43824201D16D18A1
:1023E000641C641C2078864669284AD008DC0028D2
:1023F000B4D058286DD0632810D0642808D140E0AC
:1024000070286BD0732812D0752860D0782860D0DF
:10241000129A704611999047761CE5E03878694623
:1024200008720020487202A80190012003E0386879
:1024300001900020C0433F1D69070CD5002500E036
:102440006D1C00998D420FDA8542F9DB0199495DD7
:102450000029F5D108E0002500E06D1C8542FCDB79
:102460000199495D0029F8D1761907E00198019991
:102470000078491C0191129A119990476D1EF5D26E
:10248000B2E00A20029000216802400F0391022866
:102490000CD001CFC117844600290DDA62460846E8
:1024A00052420021814194462D2008E0FF1DFF0883
:1024B000FF0003CF8446EFE7280504D52B206A46AA
:1024C000107401203CE0E8073AD02020F7E70A200A
:1024D00000E0102000210391029007E010200290FC
:1024E0000021042005430820039100906802400F5A
:1024F000022810D001CF0021844600200D9028072B
:102500001FD5704670280CD0029A1020039B4240C1
:102510001A430CD015E0FF1DFF08FF0003CF8446CF
:10252000EBE740206A46107401200D900CE06046F5
:10253000084306D030206A4610747046507402205A
:102540000D907046582804D029A001900DA80E9037
:102550000DE02CA0F9E76046039B029AFFF76AFEA4
:10256000019B84469B5C0E9A521E0E92137060462D
:102570000843F0D10E9805A9081A20300190680789
:1025800001D5009801E0012000900199884203DD07
:1025900001460198081A00E000200025009006E09E
:1025A00004A8129A405D119990476D1C761C0D98F5
:1025B0008542F5DB04E0129A302011999047761C91
:1025C0000099481E00900029F5DC08E00E980E994D
:1025D0000078491C0E91129A11999047761C019926
:1025E000481E01900029F1DC641CB4E609280100B2
:1025F0003031323334353637383961626364656679
:10260000000000003031323334353637383941423A
:1026100043444546000000007236393432395F7356
:1026200073643238323800000000000000000001FE
:1026300002030406070809005826000800000020CD
:10264000140000001C2300086C2600081400002061
:10265000040400002C23000800000000000000001B
:0C266000000000000000000000127A00E2
:04000005080000B53A
:00000001FF
